:020000020000FC
:0200000020C01E
:02000C0051C0E1
:1000400054C00FE307B900E308B900E004B908E1C0
:1000500005B901E00093680008E100936B000FEF21
:100060000AB9F1E0E0E00FE3019306E001930BE54C
:1000700001930FE4019306E601930DE601930DE76A
:10008000019307E001930FE701930FE601934427E3
:100090005527222711271ED033D005E005BD0BE9D7
:1000A00007BD02E004BD02E000936E007894FFCF2C
:1000B0000F9303B103FF04D004FF07D00F911895ED
:1000C00010D013951F7006D008950BD01A951F708D
:1000D00001D0089538B13073012F0F70032B08B988
:1000E00008953FEF3A95F1F7089514D023952436FB
:1000F00031F4222743954C3309F4442701D0189555
:10010000042F6AE077270A3018F00A507395FBCF66
:10011000802F0895F1E0E0E0503069F4082FE00FFF
:1001200008F4F39500810BB938B13F7030623F7E1F
:1001300038B951E00895072FE00F08F4F3950081D6
:100140000BB938B13F7030613F7D38B950E0089548
:00000001FF
