:020000020000FC
:0200000020C01E
:02000C004FC0E3
:1000400048C00FE007B9002708B900E004B908E18B
:1000500005B901E00093680008E100936B000FEF21
:100060000AB9F0E0E0E00FE3019306E001930BE54D
:1000700001930FE4019306E601930DE601930DE76A
:10008000019307E001930FE701930FE60193112716
:100090002227332728D005E005BD0CE707BD02E085
:1000A00004BD02E000936E007894FFCF0F9303B17C
:1000B0001B9904D01C9906D00F91189533953F7069
:1000C00005D008953A953F7001D00895032F08B9DF
:1000D000089523952D3731F4222713951A3009F40A
:1000E000112701D01895F0E0E0E0E10F00810BB995
:0200F000089571
:00000001FF
